{
  "_format": "hh3-artifact-1",
  "contractName": "MovieRating",
  "sourceName": "contracts/MovieRating.sol",
  "abi": [
    {
      "inputs": [],
      "stateMutability": "nonpayable",
      "type": "constructor"
    },
    {
      "anonymous": false,
      "inputs": [
        {
          "indexed": false,
          "internalType": "uint256",
          "name": "movieId",
          "type": "uint256"
        },
        {
          "indexed": false,
          "internalType": "string",
          "name": "title",
          "type": "string"
        }
      ],
      "name": "MovieAdded",
      "type": "event"
    },
    {
      "anonymous": false,
      "inputs": [
        {
          "indexed": false,
          "internalType": "uint256",
          "name": "movieId",
          "type": "uint256"
        },
        {
          "indexed": false,
          "internalType": "uint256",
          "name": "rating",
          "type": "uint256"
        }
      ],
      "name": "MovieRated",
      "type": "event"
    },
    {
      "inputs": [
        {
          "internalType": "string",
          "name": "_title",
          "type": "string"
        },
        {
          "internalType": "uint256",
          "name": "_year",
          "type": "uint256"
        },
        {
          "internalType": "enum MovieRating.Genre",
          "name": "_genre",
          "type": "uint8"
        }
      ],
      "name": "addMovie",
      "outputs": [],
      "stateMutability": "nonpayable",
      "type": "function"
    },
    {
      "inputs": [],
      "name": "getMovies",
      "outputs": [
        {
          "components": [
            {
              "internalType": "uint256",
              "name": "id",
              "type": "uint256"
            },
            {
              "internalType": "string",
              "name": "title",
              "type": "string"
            },
            {
              "internalType": "enum MovieRating.Genre",
              "name": "genre",
              "type": "uint8"
            },
            {
              "internalType": "uint256",
              "name": "year",
              "type": "uint256"
            },
            {
              "internalType": "uint256",
              "name": "totalRating",
              "type": "uint256"
            },
            {
              "internalType": "uint256",
              "name": "ratingCount",
              "type": "uint256"
            }
          ],
          "internalType": "struct MovieRating.Movie[]",
          "name": "",
          "type": "tuple[]"
        }
      ],
      "stateMutability": "view",
      "type": "function"
    },
    {
      "inputs": [
        {
          "internalType": "uint256",
          "name": "",
          "type": "uint256"
        },
        {
          "internalType": "address",
          "name": "",
          "type": "address"
        }
      ],
      "name": "hasRated",
      "outputs": [
        {
          "internalType": "bool",
          "name": "",
          "type": "bool"
        }
      ],
      "stateMutability": "view",
      "type": "function"
    },
    {
      "inputs": [
        {
          "internalType": "uint256",
          "name": "",
          "type": "uint256"
        }
      ],
      "name": "movies",
      "outputs": [
        {
          "internalType": "uint256",
          "name": "id",
          "type": "uint256"
        },
        {
          "internalType": "string",
          "name": "title",
          "type": "string"
        },
        {
          "internalType": "enum MovieRating.Genre",
          "name": "genre",
          "type": "uint8"
        },
        {
          "internalType": "uint256",
          "name": "year",
          "type": "uint256"
        },
        {
          "internalType": "uint256",
          "name": "totalRating",
          "type": "uint256"
        },
        {
          "internalType": "uint256",
          "name": "ratingCount",
          "type": "uint256"
        }
      ],
      "stateMutability": "view",
      "type": "function"
    },
    {
      "inputs": [],
      "name": "owner",
      "outputs": [
        {
          "internalType": "address",
          "name": "",
          "type": "address"
        }
      ],
      "stateMutability": "view",
      "type": "function"
    },
    {
      "inputs": [
        {
          "internalType": "uint256",
          "name": "movieId",
          "type": "uint256"
        },
        {
          "internalType": "uint256",
          "name": "rating",
          "type": "uint256"
        }
      ],
      "name": "rateMovie",
      "outputs": [],
      "stateMutability": "nonpayable",
      "type": "function"
    },
    {
      "inputs": [
        {
          "internalType": "uint256",
          "name": "movieId",
          "type": "uint256"
        }
      ],
      "name": "removeMovie",
      "outputs": [],
      "stateMutability": "nonpayable",
      "type": "function"
    }
  ],
  "bytecode": "0x6080604052348015600f57600080fd5b50600080546001600160a01b03191633179055610ef7806100316000396000f3fe608060405234801561001057600080fd5b506004361061007d5760003560e01c8063764544861161005b57806376454486146100da578063861abe56146101185780638da5cb5b1461012b578063e5a77d801461015657600080fd5b80632c53b40614610082578063404ebf6c146100a05780634ffa7dca146100c5575b600080fd5b61008a610169565b60405161009791906109b1565b60405180910390f35b6100b36100ae366004610a5c565b6102b5565b60405161009796959493929190610a75565b6100d86100d3366004610a5c565b61038a565b005b6101086100e8366004610aba565b600260209081526000928352604080842090915290825290205460ff1681565b6040519015158152602001610097565b6100d8610126366004610af6565b6105cb565b60005461013e906001600160a01b031681565b6040516001600160a01b039091168152602001610097565b6100d8610164366004610b42565b61077a565b60606001805480602002602001604051908101604052809291908181526020016000905b828210156102ac57838290600052602060002090600602016040518060c0016040529081600082015481526020016001820180546101ca90610c12565b80601f01602080910402602001604051908101604052809291908181526020018280546101f690610c12565b80156102435780601f1061021857610100808354040283529160200191610243565b820191906000526020600020905b81548152906001019060200180831161022657829003601f168201915b5050509183525050600282015460209091019060ff16601481111561026a5761026a610979565b601481111561027b5761027b610979565b815260200160038201548152602001600482015481526020016005820154815250508152602001906001019061018d565b50505050905090565b600181815481106102c557600080fd5b600091825260209091206006909102018054600182018054919350906102ea90610c12565b80601f016020809104026020016040519081016040528092919081815260200182805461031690610c12565b80156103635780601f1061033857610100808354040283529160200191610363565b820191906000526020600020905b81548152906001019060200180831161034657829003601f168201915b50505050600283015460038401546004850154600590950154939460ff9092169390925086565b6000546001600160a01b031633146103e25760405162461bcd60e51b81526020600482015260166024820152752737ba103a34329031b7b73a3930b1ba1037bbb732b960511b60448201526064015b60405180910390fd5b600154811061042a5760405162461bcd60e51b8152602060048201526014602482015273135bdd9a5948191bd95cc81b9bdd08195e1a5cdd60621b60448201526064016103d9565b6001805460009161043a91610c62565b90506001818154811061044f5761044f610c7b565b90600052602060002090600602016001838154811061047057610470610c7b565b60009182526020909120825460069092020190815560018082019061049790840182610ce0565b50600282810154908201805460ff9092169160ff191660018360148111156104c1576104c1610979565b021790555060038201548160030155600482015481600401556005820154816005015590505081600183815481106104fb576104fb610c7b565b6000918252602090912060069091020155600180548061051d5761051d610dc0565b6000828152602081206006600019909301928302018181559061054360018301826108dd565b5060028101805460ff191690556000600382018190556004820181905560059091015590556040517fdf42019df16172a4cf62587bc192fc5a8776766d2663cb4d32ced057e8f4a280906105bf90848152604060208201819052600d908201526c135bdd9a59481c995b5bdd9959609a1b606082015260800190565b60405180910390a15050565b60015482106106135760405162461bcd60e51b8152602060048201526014602482015273135bdd9a5948191bd95cc81b9bdd08195e1a5cdd60621b60448201526064016103d9565b60018110158015610625575060058111155b6106665760405162461bcd60e51b8152602060048201526012602482015271526174696e67206d75737420626520312d3560701b60448201526064016103d9565b600082815260026020908152604080832033845290915290205460ff16156106c05760405162461bcd60e51b815260206004820152600d60248201526c105b1c9958591e481c985d1959609a1b60448201526064016103d9565b6000600183815481106106d5576106d5610c7b565b90600052602060002090600602019050818160040160008282546106f99190610dd6565b9250508190555060018160050160008282546107159190610dd6565b90915550506000838152600260209081526040808320338452825291829020805460ff1916600117905581518581529081018490527f685a99b61fe1dd886e6ac989b00a66172041e2539688282275609aaf408ece93910160405180910390a1505050565b6000546001600160a01b031633146107cd5760405162461bcd60e51b81526020600482015260166024820152752737ba103a34329031b7b73a3930b1ba1037bbb732b960511b60448201526064016103d9565b600180546040805160c081018252828152602081018790529192919081018460148111156107fd576107fd610979565b81526020808201879052600060408301819052606090920182905283546001818101865594835291819020835160069093020191825582015191929091908201906108489082610de9565b50604082015160028201805460ff1916600183601481111561086c5761086c610979565b0217905550606082015160038201556080820151600482015560a090910151600590910155600180547fdf42019df16172a4cf62587bc192fc5a8776766d2663cb4d32ced057e8f4a280916108c091610c62565b856040516108cf929190610ea0565b60405180910390a150505050565b5080546108e990610c12565b6000825580601f106108f9575050565b601f016020900490600052602060002090810190610917919061091a565b50565b5b8082111561092f576000815560010161091b565b5090565b6000815180845260005b818110156109595760208185018101518683018201520161093d565b506000602082860101526020601f19601f83011685010191505092915050565b634e487b7160e01b600052602160045260246000fd5b601581106109ad57634e487b7160e01b600052602160045260246000fd5b9052565b6000602082016020835280845180835260408501915060408160051b86010192506020860160005b82811015610a5057603f19878603018452815180518652602081015160c06020880152610a0960c0880182610933565b90506040820151610a1d604089018261098f565b50606082810151908801526080808301519088015260a091820151919096015260209384019391909101906001016109d9565b50929695505050505050565b600060208284031215610a6e57600080fd5b5035919050565b86815260c060208201526000610a8e60c0830188610933565b9050610a9d604083018761098f565b8460608301528360808301528260a0830152979650505050505050565b60008060408385031215610acd57600080fd5b8235915060208301356001600160a01b0381168114610aeb57600080fd5b809150509250929050565b60008060408385031215610b0957600080fd5b50508035926020909101359150565b634e487b7160e01b600052604160045260246000fd5b803560158110610b3d57600080fd5b919050565b600080600060608486031215610b5757600080fd5b833567ffffffffffffffff811115610b6e57600080fd5b8401601f81018613610b7f57600080fd5b803567ffffffffffffffff811115610b9957610b99610b18565b604051601f8201601f19908116603f0116810167ffffffffffffffff81118282101715610bc857610bc8610b18565b604052818152828201602001881015610be057600080fd5b816020840160208301376000602092820183015294508501359250610c09905060408501610b2e565b90509250925092565b600181811c90821680610c2657607f821691505b602082108103610c4657634e487b7160e01b600052602260045260246000fd5b50919050565b634e487b7160e01b600052601160045260246000fd5b81810381811115610c7557610c75610c4c565b92915050565b634e487b7160e01b600052603260045260246000fd5b601f821115610cdb57806000526020600020601f840160051c81016020851015610cb85750805b601f840160051c820191505b81811015610cd85760008155600101610cc4565b50505b505050565b818103610ceb575050565b610cf58254610c12565b67ffffffffffffffff811115610d0d57610d0d610b18565b610d2181610d1b8454610c12565b84610c91565b6000601f821160018114610d585760008315610d3d5750848201545b600184901b600019600386901b1c198216175b855550610cd8565b600085815260209020601f19841690600086815260209020845b83811015610d925782860154825560019586019590910190602001610d72565b5085831015610db05781850154600019600388901b60f8161c191681555b5050505050600190811b01905550565b634e487b7160e01b600052603160045260246000fd5b80820180821115610c7557610c75610c4c565b815167ffffffffffffffff811115610e0357610e03610b18565b610e1181610d1b8454610c12565b6020601f821160018114610e435760008315610d3d575081850151600184901b600019600386901b1c19821617610d50565b600084815260208120601f198516915b82811015610e735787850151825560209485019460019092019101610e53565b5084821015610e915786840151600019600387901b60f8161c191681555b50505050600190811b01905550565b828152604060208201526000610eb96040830184610933565b94935050505056fea26469706673582212209e20735398b3a5f190ed07b2287513564cdbf69f956ecc3a4fd81b98b1b45e0564736f6c634300081c0033",
  "linkReferences": {},
  "deployedLinkReferences": {},
  "immutableReferences": {},
  "inputSourceName": "project/contracts/MovieRating.sol",
  "buildInfoId": "solc-0_8_28-5823b9e5ee717671a06e2b6c23f247d27dbc0498"
}