{
  "_format": "hh3-artifact-1",
  "contractName": "MovieRating",
  "sourceName": "contracts/MovieRating.sol",
  "abi": [
    {
      "inputs": [],
      "stateMutability": "nonpayable",
      "type": "constructor"
    },
    {
      "anonymous": false,
      "inputs": [
        {
          "indexed": false,
          "internalType": "uint256",
          "name": "movieId",
          "type": "uint256"
        },
        {
          "indexed": false,
          "internalType": "string",
          "name": "title",
          "type": "string"
        }
      ],
      "name": "MovieAdded",
      "type": "event"
    },
    {
      "anonymous": false,
      "inputs": [
        {
          "indexed": false,
          "internalType": "uint256",
          "name": "movieId",
          "type": "uint256"
        },
        {
          "indexed": false,
          "internalType": "uint256",
          "name": "rating",
          "type": "uint256"
        }
      ],
      "name": "MovieRated",
      "type": "event"
    },
    {
      "inputs": [
        {
          "internalType": "string",
          "name": "_title",
          "type": "string"
        },
        {
          "internalType": "uint256",
          "name": "_year",
          "type": "uint256"
        }
      ],
      "name": "addMovie",
      "outputs": [],
      "stateMutability": "nonpayable",
      "type": "function"
    },
    {
      "inputs": [],
      "name": "getMovies",
      "outputs": [
        {
          "components": [
            {
              "internalType": "uint256",
              "name": "id",
              "type": "uint256"
            },
            {
              "internalType": "string",
              "name": "title",
              "type": "string"
            },
            {
              "internalType": "uint256",
              "name": "year",
              "type": "uint256"
            },
            {
              "internalType": "uint256",
              "name": "totalRating",
              "type": "uint256"
            },
            {
              "internalType": "uint256",
              "name": "ratingCount",
              "type": "uint256"
            }
          ],
          "internalType": "struct MovieRating.Movie[]",
          "name": "",
          "type": "tuple[]"
        }
      ],
      "stateMutability": "view",
      "type": "function"
    },
    {
      "inputs": [
        {
          "internalType": "uint256",
          "name": "",
          "type": "uint256"
        },
        {
          "internalType": "address",
          "name": "",
          "type": "address"
        }
      ],
      "name": "hasRated",
      "outputs": [
        {
          "internalType": "bool",
          "name": "",
          "type": "bool"
        }
      ],
      "stateMutability": "view",
      "type": "function"
    },
    {
      "inputs": [
        {
          "internalType": "uint256",
          "name": "",
          "type": "uint256"
        }
      ],
      "name": "movies",
      "outputs": [
        {
          "internalType": "uint256",
          "name": "id",
          "type": "uint256"
        },
        {
          "internalType": "string",
          "name": "title",
          "type": "string"
        },
        {
          "internalType": "uint256",
          "name": "year",
          "type": "uint256"
        },
        {
          "internalType": "uint256",
          "name": "totalRating",
          "type": "uint256"
        },
        {
          "internalType": "uint256",
          "name": "ratingCount",
          "type": "uint256"
        }
      ],
      "stateMutability": "view",
      "type": "function"
    },
    {
      "inputs": [],
      "name": "owner",
      "outputs": [
        {
          "internalType": "address",
          "name": "",
          "type": "address"
        }
      ],
      "stateMutability": "view",
      "type": "function"
    },
    {
      "inputs": [
        {
          "internalType": "uint256",
          "name": "movieId",
          "type": "uint256"
        },
        {
          "internalType": "uint256",
          "name": "rating",
          "type": "uint256"
        }
      ],
      "name": "rateMovie",
      "outputs": [],
      "stateMutability": "nonpayable",
      "type": "function"
    }
  ],
  "bytecode": "0x6080604052348015600f57600080fd5b50600080546001600160a01b03191633179055610a74806100316000396000f3fe608060405234801561001057600080fd5b50600436106100625760003560e01c80632c53b406146100675780633f68038114610085578063404ebf6c1461009a57806376454486146100be578063861abe56146100fc5780638da5cb5b1461010f575b600080fd5b61006f61013a565b60405161007c9190610665565b60405180910390f35b610098610093366004610715565b610253565b005b6100ad6100a83660046107d0565b6103ae565b60405161007c9594939291906107e9565b6100ec6100cc36600461081f565b600260209081526000928352604080842090915290825290205460ff1681565b604051901515815260200161007c565b61009861010a36600461085b565b610478565b600054610122906001600160a01b031681565b6040516001600160a01b03909116815260200161007c565b60606001805480602002602001604051908101604052809291908181526020016000905b8282101561024a57838290600052602060002090600502016040518060a00160405290816000820154815260200160018201805461019b9061087d565b80601f01602080910402602001604051908101604052809291908181526020018280546101c79061087d565b80156102145780601f106101e957610100808354040283529160200191610214565b820191906000526020600020905b8154815290600101906020018083116101f757829003601f168201915b5050505050815260200160028201548152602001600382015481526020016004820154815250508152602001906001019061015e565b50505050905090565b6000546001600160a01b031633146102ab5760405162461bcd60e51b81526020600482015260166024820152752737ba103a34329031b7b73a3930b1ba1037bbb732b960511b60448201526064015b60405180910390fd5b600180546040805160a08101825282815260208101868152918101859052600060608201819052608082018190528385018555939093528251600583027fb10e2d527612073b26eecdfd717e6a320cf44b4afac2b0732d9fcbe2b7fa0cf68101918255915192939290917fb10e2d527612073b26eecdfd717e6a320cf44b4afac2b0732d9fcbe2b7fa0cf701906103429082610906565b506040820151600282015560608201516003820155608090910151600490910155600180547fdf42019df16172a4cf62587bc192fc5a8776766d2663cb4d32ced057e8f4a28091610392916109db565b846040516103a19291906109f4565b60405180910390a1505050565b600181815481106103be57600080fd5b600091825260209091206005909102018054600182018054919350906103e39061087d565b80601f016020809104026020016040519081016040528092919081815260200182805461040f9061087d565b801561045c5780601f106104315761010080835404028352916020019161045c565b820191906000526020600020905b81548152906001019060200180831161043f57829003601f168201915b5050505050908060020154908060030154908060040154905085565b60015482106104c05760405162461bcd60e51b8152602060048201526014602482015273135bdd9a5948191bd95cc81b9bdd08195e1a5cdd60621b60448201526064016102a2565b600181101580156104d2575060058111155b6105135760405162461bcd60e51b8152602060048201526012602482015271526174696e67206d75737420626520312d3560701b60448201526064016102a2565b600082815260026020908152604080832033845290915290205460ff161561056d5760405162461bcd60e51b815260206004820152600d60248201526c105b1c9958591e481c985d1959609a1b60448201526064016102a2565b60006001838154811061058257610582610a15565b90600052602060002090600502019050818160030160008282546105a69190610a2b565b9250508190555060018160040160008282546105c29190610a2b565b90915550506000838152600260209081526040808320338452825291829020805460ff1916600117905581518581529081018490527f685a99b61fe1dd886e6ac989b00a66172041e2539688282275609aaf408ece9391016103a1565b6000815180845260005b8181101561064557602081850181015186830182015201610629565b506000602082860101526020601f19601f83011685010191505092915050565b6000602082016020835280845180835260408501915060408160051b86010192506020860160005b828110156106f357603f19878603018452815180518652602081015160a060208801526106bd60a088018261061f565b6040838101519089015260608084015190890152608092830151929097019190915250602093840193919091019060010161068d565b50929695505050505050565b634e487b7160e01b600052604160045260246000fd5b6000806040838503121561072857600080fd5b823567ffffffffffffffff81111561073f57600080fd5b8301601f8101851361075057600080fd5b803567ffffffffffffffff81111561076a5761076a6106ff565b604051601f8201601f19908116603f0116810167ffffffffffffffff81118282101715610799576107996106ff565b6040528181528282016020018710156107b157600080fd5b8160208401602083013760006020928201830152969401359450505050565b6000602082840312156107e257600080fd5b5035919050565b85815260a06020820152600061080260a083018761061f565b604083019590955250606081019290925260809091015292915050565b6000806040838503121561083257600080fd5b8235915060208301356001600160a01b038116811461085057600080fd5b809150509250929050565b6000806040838503121561086e57600080fd5b50508035926020909101359150565b600181811c9082168061089157607f821691505b6020821081036108b157634e487b7160e01b600052602260045260246000fd5b50919050565b601f82111561090157806000526020600020601f840160051c810160208510156108de5750805b601f840160051c820191505b818110156108fe57600081556001016108ea565b50505b505050565b815167ffffffffffffffff811115610920576109206106ff565b6109348161092e845461087d565b846108b7565b6020601f82116001811461096857600083156109505750848201515b600019600385901b1c1916600184901b1784556108fe565b600084815260208120601f198516915b828110156109985787850151825560209485019460019092019101610978565b50848210156109b65786840151600019600387901b60f8161c191681555b50505050600190811b01905550565b634e487b7160e01b600052601160045260246000fd5b818103818111156109ee576109ee6109c5565b92915050565b828152604060208201526000610a0d604083018461061f565b949350505050565b634e487b7160e01b600052603260045260246000fd5b808201808211156109ee576109ee6109c556fea2646970667358221220509cb46ce06a1f2d7a4c1d05cedb08beeb21868573a8f58995debf650a556ae064736f6c634300081c0033",
  "linkReferences": {},
  "deployedLinkReferences": {},
  "immutableReferences": {},
  "inputSourceName": "project/contracts/MovieRating.sol",
  "buildInfoId": "solc-0_8_28-85198aa0061da21fc8120fb2fa2490df6fb476a0"
}