{
  "_format": "hh3-artifact-1",
  "contractName": "MovieRating",
  "sourceName": "contracts/MovieRating.sol",
  "abi": [
    {
      "anonymous": false,
      "inputs": [
        {
          "indexed": false,
          "internalType": "uint256",
          "name": "movieId",
          "type": "uint256"
        },
        {
          "indexed": false,
          "internalType": "string",
          "name": "title",
          "type": "string"
        }
      ],
      "name": "MovieAdded",
      "type": "event"
    },
    {
      "anonymous": false,
      "inputs": [
        {
          "indexed": false,
          "internalType": "uint256",
          "name": "movieId",
          "type": "uint256"
        },
        {
          "indexed": false,
          "internalType": "uint256",
          "name": "rating",
          "type": "uint256"
        }
      ],
      "name": "MovieRated",
      "type": "event"
    },
    {
      "inputs": [
        {
          "internalType": "string",
          "name": "_title",
          "type": "string"
        },
        {
          "internalType": "uint256",
          "name": "_year",
          "type": "uint256"
        }
      ],
      "name": "addMovie",
      "outputs": [],
      "stateMutability": "nonpayable",
      "type": "function"
    },
    {
      "inputs": [],
      "name": "getMovies",
      "outputs": [
        {
          "components": [
            {
              "internalType": "uint256",
              "name": "id",
              "type": "uint256"
            },
            {
              "internalType": "string",
              "name": "title",
              "type": "string"
            },
            {
              "internalType": "uint256",
              "name": "year",
              "type": "uint256"
            },
            {
              "internalType": "uint256",
              "name": "totalRating",
              "type": "uint256"
            },
            {
              "internalType": "uint256",
              "name": "ratingCount",
              "type": "uint256"
            }
          ],
          "internalType": "struct MovieRating.Movie[]",
          "name": "",
          "type": "tuple[]"
        }
      ],
      "stateMutability": "view",
      "type": "function"
    },
    {
      "inputs": [
        {
          "internalType": "uint256",
          "name": "",
          "type": "uint256"
        },
        {
          "internalType": "address",
          "name": "",
          "type": "address"
        }
      ],
      "name": "hasRated",
      "outputs": [
        {
          "internalType": "bool",
          "name": "",
          "type": "bool"
        }
      ],
      "stateMutability": "view",
      "type": "function"
    },
    {
      "inputs": [
        {
          "internalType": "uint256",
          "name": "",
          "type": "uint256"
        }
      ],
      "name": "movies",
      "outputs": [
        {
          "internalType": "uint256",
          "name": "id",
          "type": "uint256"
        },
        {
          "internalType": "string",
          "name": "title",
          "type": "string"
        },
        {
          "internalType": "uint256",
          "name": "year",
          "type": "uint256"
        },
        {
          "internalType": "uint256",
          "name": "totalRating",
          "type": "uint256"
        },
        {
          "internalType": "uint256",
          "name": "ratingCount",
          "type": "uint256"
        }
      ],
      "stateMutability": "view",
      "type": "function"
    },
    {
      "inputs": [
        {
          "internalType": "uint256",
          "name": "movieId",
          "type": "uint256"
        },
        {
          "internalType": "uint256",
          "name": "rating",
          "type": "uint256"
        }
      ],
      "name": "rateMovie",
      "outputs": [],
      "stateMutability": "nonpayable",
      "type": "function"
    }
  ],
  "bytecode": "0x6080604052348015600f57600080fd5b506109eb8061001f6000396000f3fe608060405234801561001057600080fd5b50600436106100575760003560e01c80632c53b4061461005c5780633f6803811461007a578063404ebf6c1461008f57806376454486146100b3578063861abe56146100f1575b600080fd5b610064610104565b60405161007191906105dc565b60405180910390f35b61008d61008836600461068c565b61021d565b005b6100a261009d366004610747565b610320565b604051610071959493929190610760565b6100e16100c1366004610796565b600160209081526000928352604080842090915290825290205460ff1681565b6040519015158152602001610071565b61008d6100ff3660046107d2565b6103ea565b60606000805480602002602001604051908101604052809291908181526020016000905b8282101561021457838290600052602060002090600502016040518060a001604052908160008201548152602001600182018054610165906107f4565b80601f0160208091040260200160405190810160405280929190818152602001828054610191906107f4565b80156101de5780601f106101b3576101008083540402835291602001916101de565b820191906000526020600020905b8154815290600101906020018083116101c157829003601f168201915b50505050508152602001600282015481526020016003820154815260200160048201548152505081526020019060010190610128565b50505050905090565b600080546040805160a0810182528281526020810186815291810185905260608101849052608081018490526001830184559280528251600583027f290decd9548b62a8d60345a988386fc84ba6bc95484008f6362f93160ef3e5638101918255915192939290917f290decd9548b62a8d60345a988386fc84ba6bc95484008f6362f93160ef3e56401906102b2908261087d565b5060408201516002820155606082015160038201556080909101516004909101556000547fdf42019df16172a4cf62587bc192fc5a8776766d2663cb4d32ced057e8f4a2809061030490600190610952565b8460405161031392919061096b565b60405180910390a1505050565b6000818154811061033057600080fd5b60009182526020909120600590910201805460018201805491935090610355906107f4565b80601f0160208091040260200160405190810160405280929190818152602001828054610381906107f4565b80156103ce5780601f106103a3576101008083540402835291602001916103ce565b820191906000526020600020905b8154815290600101906020018083116103b157829003601f168201915b5050505050908060020154908060030154908060040154905085565b60005482106104375760405162461bcd60e51b8152602060048201526014602482015273135bdd9a5948191bd95cc81b9bdd08195e1a5cdd60621b60448201526064015b60405180910390fd5b60018110158015610449575060058111155b61048a5760405162461bcd60e51b8152602060048201526012602482015271526174696e67206d75737420626520312d3560701b604482015260640161042e565b600082815260016020908152604080832033845290915290205460ff16156104e45760405162461bcd60e51b815260206004820152600d60248201526c105b1c9958591e481c985d1959609a1b604482015260640161042e565b60008083815481106104f8576104f861098c565b906000526020600020906005020190508181600301600082825461051c91906109a2565b92505081905550600181600401600082825461053891906109a2565b90915550506000838152600160208181526040808420338552825292839020805460ff191690921790915581518581529081018490527f685a99b61fe1dd886e6ac989b00a66172041e2539688282275609aaf408ece939101610313565b6000815180845260005b818110156105bc576020818501810151868301820152016105a0565b506000602082860101526020601f19601f83011685010191505092915050565b6000602082016020835280845180835260408501915060408160051b86010192506020860160005b8281101561066a57603f19878603018452815180518652602081015160a0602088015261063460a0880182610596565b60408381015190890152606080840151908901526080928301519290970191909152506020938401939190910190600101610604565b50929695505050505050565b634e487b7160e01b600052604160045260246000fd5b6000806040838503121561069f57600080fd5b823567ffffffffffffffff8111156106b657600080fd5b8301601f810185136106c757600080fd5b803567ffffffffffffffff8111156106e1576106e1610676565b604051601f8201601f19908116603f0116810167ffffffffffffffff8111828210171561071057610710610676565b60405281815282820160200187101561072857600080fd5b8160208401602083013760006020928201830152969401359450505050565b60006020828403121561075957600080fd5b5035919050565b85815260a06020820152600061077960a0830187610596565b604083019590955250606081019290925260809091015292915050565b600080604083850312156107a957600080fd5b8235915060208301356001600160a01b03811681146107c757600080fd5b809150509250929050565b600080604083850312156107e557600080fd5b50508035926020909101359150565b600181811c9082168061080857607f821691505b60208210810361082857634e487b7160e01b600052602260045260246000fd5b50919050565b601f82111561087857806000526020600020601f840160051c810160208510156108555750805b601f840160051c820191505b818110156108755760008155600101610861565b50505b505050565b815167ffffffffffffffff81111561089757610897610676565b6108ab816108a584546107f4565b8461082e565b6020601f8211600181146108df57600083156108c75750848201515b600019600385901b1c1916600184901b178455610875565b600084815260208120601f198516915b8281101561090f57878501518255602094850194600190920191016108ef565b508482101561092d5786840151600019600387901b60f8161c191681555b50505050600190811b01905550565b634e487b7160e01b600052601160045260246000fd5b818103818111156109655761096561093c565b92915050565b8281526040602082015260006109846040830184610596565b949350505050565b634e487b7160e01b600052603260045260246000fd5b808201808211156109655761096561093c56fea2646970667358221220c332728a200214d5d29377729e6295552b139974347beb590ac1d4eacb53f47064736f6c634300081c0033",
  "linkReferences": {},
  "deployedLinkReferences": {},
  "immutableReferences": {},
  "inputSourceName": "project/contracts/MovieRating.sol",
  "buildInfoId": "solc-0_8_28-1c1d5b2ec3c28b4c15aa59b610d40765f312247a"
}